{
  "contractName": "Bonus",
  "abi": [
    {
      "anonymous": false,
      "inputs": [
        {
          "indexed": false,
          "internalType": "address",
          "name": "oldAdmin",
          "type": "address"
        },
        {
          "indexed": false,
          "internalType": "address",
          "name": "newAdmin",
          "type": "address"
        }
      ],
      "name": "NewAdmin",
      "type": "event"
    },
    {
      "anonymous": false,
      "inputs": [
        {
          "indexed": false,
          "internalType": "address",
          "name": "oldDev",
          "type": "address"
        },
        {
          "indexed": false,
          "internalType": "address",
          "name": "newDev",
          "type": "address"
        }
      ],
      "name": "NewDev",
      "type": "event"
    },
    {
      "anonymous": false,
      "inputs": [
        {
          "indexed": false,
          "internalType": "address",
          "name": "oldOwner",
          "type": "address"
        },
        {
          "indexed": false,
          "internalType": "address",
          "name": "newOwner",
          "type": "address"
        }
      ],
      "name": "NewOwner",
      "type": "event"
    },
    {
      "anonymous": false,
      "inputs": [
        {
          "indexed": false,
          "internalType": "address",
          "name": "oldPendingOwner",
          "type": "address"
        },
        {
          "indexed": false,
          "internalType": "address",
          "name": "newPendingOwner",
          "type": "address"
        }
      ],
      "name": "NewPendingOwner",
      "type": "event"
    },
    {
      "anonymous": false,
      "inputs": [
        {
          "indexed": false,
          "internalType": "address",
          "name": "account",
          "type": "address"
        }
      ],
      "name": "Paused",
      "type": "event"
    },
    {
      "anonymous": false,
      "inputs": [
        {
          "indexed": false,
          "internalType": "address",
          "name": "account",
          "type": "address"
        }
      ],
      "name": "Unpaused",
      "type": "event"
    },
    {
      "inputs": [],
      "name": "acceptOwner",
      "outputs": [],
      "stateMutability": "nonpayable",
      "type": "function"
    },
    {
      "inputs": [],
      "name": "admin",
      "outputs": [
        {
          "internalType": "address",
          "name": "",
          "type": "address"
        }
      ],
      "stateMutability": "view",
      "type": "function"
    },
    {
      "inputs": [
        {
          "internalType": "uint256",
          "name": "",
          "type": "uint256"
        }
      ],
      "name": "allUserPledgeBetTodayMap",
      "outputs": [
        {
          "internalType": "uint256",
          "name": "",
          "type": "uint256"
        }
      ],
      "stateMutability": "view",
      "type": "function"
    },
    {
      "inputs": [],
      "name": "allUserTotalPledgeAmount",
      "outputs": [
        {
          "internalType": "uint256",
          "name": "",
          "type": "uint256"
        }
      ],
      "stateMutability": "view",
      "type": "function"
    },
    {
      "inputs": [],
      "name": "betCoin",
      "outputs": [
        {
          "internalType": "address",
          "name": "",
          "type": "address"
        }
      ],
      "stateMutability": "view",
      "type": "function"
    },
    {
      "inputs": [],
      "name": "dev",
      "outputs": [
        {
          "internalType": "address",
          "name": "",
          "type": "address"
        }
      ],
      "stateMutability": "view",
      "type": "function"
    },
    {
      "inputs": [],
      "name": "owner",
      "outputs": [
        {
          "internalType": "address",
          "name": "",
          "type": "address"
        }
      ],
      "stateMutability": "view",
      "type": "function"
    },
    {
      "inputs": [],
      "name": "paused",
      "outputs": [
        {
          "internalType": "bool",
          "name": "",
          "type": "bool"
        }
      ],
      "stateMutability": "view",
      "type": "function"
    },
    {
      "inputs": [],
      "name": "pendingOwner",
      "outputs": [
        {
          "internalType": "address",
          "name": "",
          "type": "address"
        }
      ],
      "stateMutability": "view",
      "type": "function"
    },
    {
      "inputs": [],
      "name": "renounceOwnership",
      "outputs": [],
      "stateMutability": "nonpayable",
      "type": "function"
    },
    {
      "inputs": [
        {
          "internalType": "address",
          "name": "newAdmin",
          "type": "address"
        }
      ],
      "name": "setAdmin",
      "outputs": [],
      "stateMutability": "nonpayable",
      "type": "function"
    },
    {
      "inputs": [
        {
          "internalType": "address",
          "name": "newDev",
          "type": "address"
        }
      ],
      "name": "setDev",
      "outputs": [],
      "stateMutability": "nonpayable",
      "type": "function"
    },
    {
      "inputs": [
        {
          "internalType": "address",
          "name": "_pendingOwner",
          "type": "address"
        }
      ],
      "name": "transferOwnership",
      "outputs": [],
      "stateMutability": "nonpayable",
      "type": "function"
    },
    {
      "inputs": [],
      "name": "userCount",
      "outputs": [
        {
          "internalType": "uint256",
          "name": "",
          "type": "uint256"
        }
      ],
      "stateMutability": "view",
      "type": "function"
    },
    {
      "inputs": [
        {
          "internalType": "uint256",
          "name": "",
          "type": "uint256"
        },
        {
          "internalType": "uint256",
          "name": "",
          "type": "uint256"
        }
      ],
      "name": "userPledgeBetTodayMap",
      "outputs": [
        {
          "internalType": "uint256",
          "name": "",
          "type": "uint256"
        }
      ],
      "stateMutability": "view",
      "type": "function"
    },
    {
      "inputs": [
        {
          "internalType": "address",
          "name": "",
          "type": "address"
        }
      ],
      "name": "userToNumberMap",
      "outputs": [
        {
          "internalType": "uint256",
          "name": "",
          "type": "uint256"
        }
      ],
      "stateMutability": "view",
      "type": "function"
    },
    {
      "inputs": [
        {
          "internalType": "uint256",
          "name": "",
          "type": "uint256"
        }
      ],
      "name": "userTotalPledgeAmount",
      "outputs": [
        {
          "internalType": "uint256",
          "name": "",
          "type": "uint256"
        }
      ],
      "stateMutability": "view",
      "type": "function"
    },
    {
      "inputs": [
        {
          "internalType": "uint256",
          "name": "",
          "type": "uint256"
        }
      ],
      "name": "withdrawBonus",
      "outputs": [
        {
          "internalType": "uint256",
          "name": "",
          "type": "uint256"
        }
      ],
      "stateMutability": "view",
      "type": "function"
    },
    {
      "inputs": [
        {
          "internalType": "address",
          "name": "_betCoin",
          "type": "address"
        }
      ],
      "name": "initialize",
      "outputs": [],
      "stateMutability": "nonpayable",
      "type": "function"
    },
    {
      "inputs": [],
      "name": "pause",
      "outputs": [],
      "stateMutability": "nonpayable",
      "type": "function"
    },
    {
      "inputs": [],
      "name": "unPause",
      "outputs": [],
      "stateMutability": "nonpayable",
      "type": "function"
    },
    {
      "inputs": [
        {
          "internalType": "address",
          "name": "_betCoin",
          "type": "address"
        }
      ],
      "name": "updateBetCoin",
      "outputs": [],
      "stateMutability": "nonpayable",
      "type": "function"
    },
    {
      "inputs": [
        {
          "internalType": "uint256",
          "name": "amount",
          "type": "uint256"
        }
      ],
      "name": "deposit",
      "outputs": [],
      "stateMutability": "nonpayable",
      "type": "function"
    },
    {
      "inputs": [
        {
          "internalType": "uint256",
          "name": "amount",
          "type": "uint256"
        }
      ],
      "name": "withdrawPrincipal",
      "outputs": [],
      "stateMutability": "nonpayable",
      "type": "function"
    },
    {
      "inputs": [],
      "name": "withdrawInterest",
      "outputs": [],
      "stateMutability": "nonpayable",
      "type": "function"
    },
    {
      "inputs": [],
      "name": "withdraw",
      "outputs": [],
      "stateMutability": "nonpayable",
      "type": "function"
    },
    {
      "inputs": [],
      "name": "shareBonus",
      "outputs": [],
      "stateMutability": "nonpayable",
      "type": "function"
    }
  ],
  "bytecode": "0x608060405234801561001057600080fd5b506118a8806100206000396000f3fe608060405234801561001057600080fd5b50600436106101a85760003560e01c80638da5cb5b116100f9578063d477f05f11610097578063f2fde38b11610071578063f2fde38b14610370578063f7b188a514610383578063f851a4401461038b578063fa6f39bb1461039e576101a8565b8063d477f05f14610342578063e30c397814610355578063ebbc496514610368576101a8565b8063b6b55f25116100d3578063b6b55f2514610300578063b74da4a314610313578063c4d66de81461031c578063cba5d5b91461032f576101a8565b80638da5cb5b146102ba57806391cca3db146102e557806396f9cffa146102f8576101a8565b8063658e28a411610166578063704b6c0211610140578063704b6c0214610277578063715018a61461028a57806372d32968146102925780638456cb59146102b2576101a8565b8063658e28a414610224578063660af61e14610237578063687c810714610257576101a8565b806263750c146101ad57806307973ccf146101b75780630f311b3f146101d35780633ccfd60b146101f35780633db23ebb146101fb5780635c975abb1461020e575b600080fd5b6101b56103c9565b005b6101c0609d5481565b6040519081526020015b60405180910390f35b6101c06101e1366004611646565b609f6020526000908152604090205481565b6101b56104d0565b6101b56102093660046115ff565b610594565b60655460ff1660405190151581526020016101ca565b6101b5610232366004611646565b6105f5565b6101c06102453660046115ff565b609e6020526000908152604090205481565b6101c0610265366004611646565b60a16020526000908152604090205481565b6101b56102853660046115ff565b61082c565b6101b56108bf565b6101c06102a0366004611646565b60a26020526000908152604090205481565b6101b56109e7565b6097546102cd906001600160a01b031681565b6040516001600160a01b0390911681526020016101ca565b609a546102cd906001600160a01b031681565b6101b5610a53565b6101b561030e366004611646565b610ca3565b6101c0609c5481565b6101b561032a3660046115ff565b610e3d565b609b546102cd906001600160a01b031681565b6101b56103503660046115ff565b610f3e565b6098546102cd906001600160a01b031681565b6101b5610fd1565b6101b561037e3660046115ff565b6110e8565b6101b5611151565b6099546102cd906001600160a01b031681565b6101c06103ac366004611676565b60a060209081526000928352604080842090915290825290205481565b600260015414156103f55760405162461bcd60e51b81526004016103ec9061174d565b60405180910390fd5b600260015560655460ff161561041d5760405162461bcd60e51b81526004016103ec90611723565b336000908152609e6020908152604080832054835260a290915290205480156104945760405162461bcd60e51b8152602060048201526024808201527f746865726520617265206e6f20776974686472617761626c65206469766964656044820152633732399760e11b60648201526084016103ec565b609b546001600160a01b03166104ab8133846111e1565b5050336000908152609e6020908152604080832054835260a290915281205560018055565b6097546001600160a01b031633146104fa5760405162461bcd60e51b81526004016103ec90611784565b609b546040516370a0823160e01b81523060048201526001600160a01b039091169060009082906370a082319060240160206040518083038186803b15801561054257600080fd5b505afa158015610556573d6000803e3d6000fd5b505050506040513d601f19601f8201168201806040525081019061057a919061165e565b90506105906001600160a01b03831633836111e1565b5050565b6099546001600160a01b03163314806105b757506097546001600160a01b031633145b6105d35760405162461bcd60e51b81526004016103ec90611700565b609b80546001600160a01b0319166001600160a01b0392909216919091179055565b600260015414156106185760405162461bcd60e51b81526004016103ec9061174d565b600260015560655460ff16156106405760405162461bcd60e51b81526004016103ec90611723565b600081116106835760405162461bcd60e51b815260206004820152601060248201526f30b6b7bab73a1034b99032b93937b91760811b60448201526064016103ec565b336000908152609e6020908152604080832054808452609f909252909120548211156106f15760405162461bcd60e51b815260206004820152601c60248201527f616d6f756e74207570706572206c696d69742065786365656465642e0000000060448201526064016103ec565b609b546001600160a01b031660a06000610709611249565b81526020019081526020016000206000838152602001908152602001600020548311610775578260a0600061073c611249565b81526020019081526020016000206000848152602001908152602001600020600082825461076a91906117fe565b909155506107a29050565b600060a06000610783611249565b8152602080820192909252604090810160009081208682529092529020555b6000828152609f6020526040812080548592906107c09084906117fe565b9091555083905060a160006107d3611249565b815260200190815260200160002060008282546107f091906117fe565b9250508190555082609c600082825461080991906117fe565b9091555061082390506001600160a01b03821633856111e1565b50506001805550565b6097546001600160a01b031633146108565760405162461bcd60e51b81526004016103ec90611784565b6099546040517ff9ffabca9c8276e99321725bcb43fb076a6c66a54b7f21c4e8146d8519b417dc91610895916001600160a01b039091169084906116b3565b60405180910390a1609980546001600160a01b0319166001600160a01b0392909216919091179055565b6097546001600160a01b031633146108e95760405162461bcd60e51b81526004016103ec90611784565b6097546040517f70aea8d848e8a90fb7661b227dc522eb6395c3dac71b63cb59edd5c9899b236491610929916001600160a01b03909116906000906116b3565b60405180910390a16099546040517ff9ffabca9c8276e99321725bcb43fb076a6c66a54b7f21c4e8146d8519b417dc91610971916001600160a01b03909116906000906116b3565b60405180910390a16098546040517fb3d55174552271a4f1aaf36b72f50381e892171636b3fb5447fe00e995e7a37b916109b9916001600160a01b03909116906000906116b3565b60405180910390a1609780546001600160a01b03199081169091556098805482169055609980549091169055565b60655460ff1615610a0a5760405162461bcd60e51b81526004016103ec90611723565b6099546001600160a01b0316331480610a2d57506097546001600160a01b031633145b610a495760405162461bcd60e51b81526004016103ec90611700565b610a5161125d565b565b6099546001600160a01b0316331480610a7657506097546001600160a01b031633145b610a925760405162461bcd60e51b81526004016103ec90611700565b60026001541415610ab55760405162461bcd60e51b81526004016103ec9061174d565b600260015560655460ff1615610add5760405162461bcd60e51b81526004016103ec90611723565b609b546040516370a0823160e01b81523060048201526001600160a01b039091169060009082906370a082319060240160206040518083038186803b158015610b2557600080fd5b505afa158015610b39573d6000803e3d6000fd5b505050506040513d601f19601f82011682018060405250810190610b5d919061165e565b905060008111610ba55760405162461bcd60e51b815260206004820152601360248201527234b739bab33334b1b4b2b73a10333ab732399760691b60448201526064016103ec565b6000610bd660a16000610bb6611249565b815260200190815260200160002054609c546112d290919063ffffffff16565b90508015610823576000610bea83836112e5565b905060015b609d548111610c98576000818152609f602052604090205415610c8657610c62670de0b6b3a7640000610c5c84610c5660a06000610c2b611249565b815260208082019290925260409081016000908120898252835281812054609f9093522054906112d2565b906112f1565b906112e5565b600082815260a2602052604081208054909190610c809084906117a7565b90915550505b80610c9081611841565b915050610bef565b505050506001805550565b60026001541415610cc65760405162461bcd60e51b81526004016103ec9061174d565b600260015560655460ff1615610cee5760405162461bcd60e51b81526004016103ec90611723565b60008111610d315760405162461bcd60e51b815260206004820152601060248201526f30b6b7bab73a1034b99032b93937b91760811b60448201526064016103ec565b336000908152609e602052604090205480610d6f57609d8054906000610d5683611841565b9091555050609d54336000908152609e60205260409020555b609b546001600160a01b0316610d87813330866112fd565b6000828152609f602052604081208054859290610da59084906117a7565b9091555083905060a06000610db8611249565b815260200190815260200160002060008481526020019081526020016000206000828254610de691906117a7565b9091555083905060a16000610df9611249565b81526020019081526020016000206000828254610e1691906117a7565b9250508190555082609c6000828254610e2f91906117a7565b909155505060018055505050565b600054610100900460ff16610e585760005460ff1615610e5c565b303b155b610ebf5760405162461bcd60e51b815260206004820152602e60248201527f496e697469616c697a61626c653a20636f6e747261637420697320616c72656160448201526d191e481a5b9a5d1a585b1a5e995960921b60648201526084016103ec565b600054610100900460ff16158015610eea576000805460ff1961ff0019909116610100171660011790555b609b80546001600160a01b03199081166001600160a01b038516179091556097805433908316811790915560998054831682179055609a80549092161790558015610590576000805461ff00191690555050565b6097546001600160a01b03163314610f685760405162461bcd60e51b81526004016103ec90611784565b609a546040517fdec101f106d4fc7c85791843e64b198248c822298e3ed7046231d33f7783d81691610fa7916001600160a01b039091169084906116b3565b60405180910390a1609a80546001600160a01b0319166001600160a01b0392909216919091179055565b6098546001600160a01b0316331461101e5760405162461bcd60e51b815260206004820152601060248201526f37b7363ca832b73234b733a7bbb732b960811b60448201526064016103ec565b6097546098546040517f70aea8d848e8a90fb7661b227dc522eb6395c3dac71b63cb59edd5c9899b236492611061926001600160a01b03918216929116906116b3565b60405180910390a1609854609780546001600160a01b0319166001600160a01b0390921691821790556040516000917fb3d55174552271a4f1aaf36b72f50381e892171636b3fb5447fe00e995e7a37b916110be919084906116b3565b60405180910390a1609880546001600160a01b0319166001600160a01b0392909216919091179055565b6097546001600160a01b031633146111125760405162461bcd60e51b81526004016103ec90611784565b6098546040517fb3d55174552271a4f1aaf36b72f50381e892171636b3fb5447fe00e995e7a37b916110be916001600160a01b039091169084906116b3565b60655460ff1661119a5760405162461bcd60e51b815260206004820152601460248201527314185d5cd8589b194e881b9bdd081c185d5cd95960621b60448201526064016103ec565b6099546001600160a01b03163314806111bd57506097546001600160a01b031633145b6111d95760405162461bcd60e51b81526004016103ec90611700565b610a5161133b565b6040516001600160a01b03831660248201526044810182905261124490849063a9059cbb60e01b906064015b60408051601f198184030181529190526020810180516001600160e01b03166001600160e01b0319909316929092179091526113b5565b505050565b600061125862015180426117bf565b905090565b60655460ff16156112805760405162461bcd60e51b81526004016103ec90611723565b6065805460ff191660011790557f62e78cea01bee320cd4e420270b5ea74000d11b0c9f74754ebdbfc544b05a2586112b53390565b6040516001600160a01b03909116815260200160405180910390a1565b60006112de82846117fe565b9392505050565b60006112de82846117bf565b60006112de82846117df565b6040516001600160a01b03808516602483015283166044820152606481018290526113359085906323b872dd60e01b9060840161120d565b50505050565b60655460ff166113845760405162461bcd60e51b815260206004820152601460248201527314185d5cd8589b194e881b9bdd081c185d5cd95960621b60448201526064016103ec565b6065805460ff191690557f5db9ee0a495bf2e6ff9c91a7834c1ba4fdd244a5e8aa4e537bd38aeae4b073aa336112b5565b600061140a826040518060400160405280602081526020017f5361666545524332303a206c6f772d6c6576656c2063616c6c206661696c6564815250856001600160a01b03166114879092919063ffffffff16565b80519091501561124457808060200190518101906114289190611626565b6112445760405162461bcd60e51b815260206004820152602a60248201527f5361666545524332303a204552433230206f7065726174696f6e20646964206e6044820152691bdd081cdd58d8d9595960b21b60648201526084016103ec565b6060611496848460008561149e565b949350505050565b6060824710156114ff5760405162461bcd60e51b815260206004820152602660248201527f416464726573733a20696e73756666696369656e742062616c616e636520666f6044820152651c8818d85b1b60d21b60648201526084016103ec565b843b61154d5760405162461bcd60e51b815260206004820152601d60248201527f416464726573733a2063616c6c20746f206e6f6e2d636f6e747261637400000060448201526064016103ec565b600080866001600160a01b031685876040516115699190611697565b60006040518083038185875af1925050503d80600081146115a6576040519150601f19603f3d011682016040523d82523d6000602084013e6115ab565b606091505b50915091506115bb8282866115c6565b979650505050505050565b606083156115d55750816112de565b8251156115e55782518084602001fd5b8160405162461bcd60e51b81526004016103ec91906116cd565b600060208284031215611610578081fd5b81356001600160a01b03811681146112de578182fd5b600060208284031215611637578081fd5b815180151581146112de578182fd5b600060208284031215611657578081fd5b5035919050565b60006020828403121561166f578081fd5b5051919050565b60008060408385031215611688578081fd5b50508035926020909101359150565b600082516116a9818460208701611815565b9190910192915050565b6001600160a01b0392831681529116602082015260400190565b60006020825282518060208401526116ec816040850160208701611815565b601f01601f19169190910160400192915050565b60208082526009908201526837b7363ca0b236b4b760b91b604082015260600190565b60208082526010908201526f14185d5cd8589b194e881c185d5cd95960821b604082015260600190565b6020808252601f908201527f5265656e7472616e637947756172643a207265656e7472616e742063616c6c00604082015260600190565b60208082526009908201526837b7363ca7bbb732b960b91b604082015260600190565b600082198211156117ba576117ba61185c565b500190565b6000826117da57634e487b7160e01b81526012600452602481fd5b500490565b60008160001904831182151516156117f9576117f961185c565b500290565b6000828210156118105761181061185c565b500390565b60005b83811015611830578181015183820152602001611818565b838111156113355750506000910152565b60006000198214156118555761185561185c565b5060010190565b634e487b7160e01b600052601160045260246000fdfea26469706673582212201e70ba64ff62bbc5a177baf2f696cbaff8bd3e7f66274f9aab6a76e395edf0e664736f6c63430008020033",
  "immutableReferences": {},
  "source": "pragma solidity ^0.8.2;\r\n\r\nimport \"@openzeppelin/contracts-upgradeable/utils/math/SafeMathUpgradeable.sol\";\r\nimport \"@openzeppelin/contracts-upgradeable/token/ERC20/IERC20Upgradeable.sol\";\r\nimport \"@openzeppelin/contracts-upgradeable/token/ERC20/utils/SafeERC20Upgradeable.sol\";\r\nimport \"@openzeppelin/contracts-upgradeable/security/ReentrancyGuardUpgradeable.sol\";\r\nimport \"@openzeppelin/contracts-upgradeable/security/PausableUpgradeable.sol\";\r\nimport \"@openzeppelin/contracts-upgradeable/proxy/utils/Initializable.sol\";\r\nimport \"./OwnableContract.sol\";\r\n\r\ncontract Bonus is Initializable, ReentrancyGuardUpgradeable, PausableUpgradeable, OwnableContract{\r\n\r\n    using SafeMathUpgradeable for uint256;\r\n    using SafeERC20Upgradeable for IERC20Upgradeable;\r\n\r\n    address public betCoin;\r\n\r\n    // BET\r\n    uint256 public allUserTotalPledgeAmount;\r\n\r\n    // \r\n    uint256 public userCount;\r\n\r\n    // \r\n    mapping(address => uint256) public userToNumberMap;\r\n\r\n    // \r\n    mapping(uint256 => uint256) public userTotalPledgeAmount;\r\n\r\n    // \r\n    mapping(uint256 => mapping(uint256 => uint256)) public userPledgeBetTodayMap;\r\n\r\n    // \r\n    mapping(uint256 => uint256) public allUserPledgeBetTodayMap;\r\n\r\n    // \r\n    mapping(uint256 => uint256) public withdrawBonus;\r\n\r\n    function initialize(address _betCoin) public initializer {\r\n        betCoin = _betCoin;\r\n        __Ownable_init();\r\n    }\r\n\r\n    function pause() public whenNotPaused onlyAdmin{\r\n        _pause();\r\n    }\r\n\r\n    function unPause() public whenPaused onlyAdmin{\r\n        _unpause();\r\n    }\r\n\r\n    function updateBetCoin(address _betCoin) public onlyAdmin{\r\n        betCoin = _betCoin;\r\n    }\r\n\r\n    function deposit(uint256 amount) public nonReentrant whenNotPaused{\r\n        require(amount > 0, \"amount is error.\");\r\n        uint256 number = userToNumberMap[msg.sender];\r\n        if(number == 0){\r\n            userCount++;\r\n            userToNumberMap[msg.sender] = userCount;\r\n        }\r\n        IERC20Upgradeable erc20 = IERC20Upgradeable(betCoin);\r\n        erc20.safeTransferFrom(address(msg.sender), address(this), amount);\r\n        userTotalPledgeAmount[number] += amount;\r\n        userPledgeBetTodayMap[today()][number] += amount;\r\n        allUserPledgeBetTodayMap[today()] += amount;\r\n        allUserTotalPledgeAmount += amount;\r\n    }\r\n\r\n    function withdrawPrincipal(uint256 amount) public nonReentrant whenNotPaused{\r\n        require(amount > 0, \"amount is error.\");\r\n        uint256 number = userToNumberMap[msg.sender];\r\n        require(amount <= userTotalPledgeAmount[number], \"amount upper limit exceeded.\");\r\n        IERC20Upgradeable erc20 = IERC20Upgradeable(betCoin);\r\n        if(amount <= userPledgeBetTodayMap[today()][number]){\r\n            userPledgeBetTodayMap[today()][number] -= amount;\r\n        }else{\r\n            userPledgeBetTodayMap[today()][number] = 0;\r\n        }\r\n        userTotalPledgeAmount[number] -= amount;\r\n        allUserPledgeBetTodayMap[today()] -= amount;\r\n        allUserTotalPledgeAmount -= amount;\r\n        erc20.safeTransfer(msg.sender, amount);\r\n    }\r\n\r\n    function withdrawInterest() public nonReentrant whenNotPaused{\r\n        uint256 bonus = withdrawBonus[userToNumberMap[msg.sender]];\r\n        require(bonus == 0, \"there are no withdrawable dividends.\");\r\n        IERC20Upgradeable erc20 = IERC20Upgradeable(betCoin);\r\n        erc20.safeTransfer(msg.sender, bonus);\r\n        withdrawBonus[userToNumberMap[msg.sender]] = 0;\r\n    }\r\n\r\n    function withdraw() public onlyOwner{\r\n        IERC20Upgradeable erc20 = IERC20Upgradeable(betCoin);\r\n        uint256 balance = erc20.balanceOf(address(this));\r\n        erc20.safeTransfer(msg.sender, balance);\r\n    }\r\n\r\n    function shareBonus() public onlyAdmin nonReentrant whenNotPaused{\r\n        IERC20Upgradeable erc20 = IERC20Upgradeable(betCoin);\r\n        uint256 balance = erc20.balanceOf(address(this));\r\n        require(balance > 0, \"insufficient funds.\");\r\n        uint256 yesterdayPledgeAmount = allUserTotalPledgeAmount.sub(allUserPledgeBetTodayMap[today()]);\r\n        if(yesterdayPledgeAmount > 0){\r\n            uint256 singleCurrencyIncome = balance.div(yesterdayPledgeAmount);\r\n            for(uint256 i=1; i<=userCount; i++){\r\n                if(userTotalPledgeAmount[i] != 0){\r\n                    withdrawBonus[i] += (userTotalPledgeAmount[i].sub(userPledgeBetTodayMap[today()][i])).mul(singleCurrencyIncome).div(1e18);\r\n                }\r\n            }\r\n        }\r\n    }\r\n\r\n    // 2023-03-20 08:00:00 - 2023-03-21 07:59:59\r\n    function today() internal view returns(uint256 dayIndex){\r\n        dayIndex = block.timestamp / 86400;\r\n    }\r\n}",
  "sourcePath": "D:\\dev\\projects\\football\\contracts\\Bonus.sol",
  "compiler": {
    "name": "solc",
    "version": "0.8.2+commit.661d1103.Emscripten.clang"
  },
  "schemaVersion": "3.4.6",
  "updatedAt": "2022-04-29T03:20:00.130Z",
  "devdoc": {
    "kind": "dev",
    "methods": {
      "paused()": {
        "details": "Returns true if the contract is paused, and false otherwise."
      }
    },
    "version": 1
  },
  "userdoc": {
    "kind": "user",
    "methods": {},
    "version": 1
  }
}